:020000040800F2
:10000000280E0020750200086922000879210008E6
:1000100065220008110900082D24000800000000D6
:100020000000000000000000000000007122000835
:1000300011130008000000006D220008752200085E
:100040008F0200088F0200088F0200088F0200084C
:100050008F0200088F0200088F0200088F0200083C
:100060008F0200088F0200088F0200088F0200082C
:100070008F020008051300088F0200088F02000895
:100080008F0200088F0200088F0200088F0200080C
:100090008F0200088F0200088F0200088F020008FC
:1000A0008F0200088F0200088F0200088F020008EC
:1000B0008F0200088F0200088F0200088F020008DC
:1000C0008F0200088F0200088F0200088F020008CC
:1000D0008F0200088F0200088F0200088F020008BC
:1000E0008F0200088F0200088F0200088F020008AC
:1000F0008F0200088F0200088F0200088F0200089C
:100100008F0200088F0200088F0200088F0200088B
:10011000412300088F0200088F0200088F020008A8
:100120008F0200088F0200088F0200088F0200086B
:100130008F02000800000000000000008F0200088D
:100140008F0200088F0200088F0200088F0200084B
:100150008F0200088F0200088F0200088F0200083B
:100160008F0200088F0200088F0200088F0200082B
:100170008F0200088F02000800000000000000004D
:100180008F0200088F02000800F002F800F063F808
:1001900014A696E8000CB244B344DA4501D100F04D
:1001A0005AF8BAE80F000FA696E83000A5EB040550
:1001B00004EB0607AAEB0704A7F101074FEA1515A0
:1001C0004FEA3414A4F10104AC4201D300F043F827
:1001D00013F0010F18BFFB1A43F0010300F001F800
:1001E000DBE718473C2400005C240000103A24BFE1
:1001F00078C878C1FAD8520724BF30C830C144BF8C
:1002000004680C6070470000704700000023002461
:1002100000250026103A28BF78C1FBD8520728BF16
:1002200030C148BF0B607047642900F0E380752936
:1002300000F0E080002070471FB502F0D3F900F015
:100240003DFA04000020002102F0B6F9401C606075
:100250001FBD10B510BD00F025FB1146FFF7ECFFE8
:1002600002F098F900F043FB03B4FFF7F2FF03BC80
:1002700000F046FB0948804709480047FEE7FEE7D3
:10028000FEE7FEE7FEE7FEE7FEE7FEE7FEE7FEE746
:1002900004480549054A064B704700002D23000815
:1002A0008901000828080020280E0020280A0020C4
:1002B000280A002010B500F001FA001D10BD00BF93
:1002C000F922000053EA020C00F069802DE9F04B9E
:1002D0004FF00006002B1FBFB3FA83F503FA05F4B5
:1002E00024FA05F65E4012BF1643B2FA82F502FA0E
:1002F00005F4C5F120051EBF22FA05FC44EA0C04F2
:10030000203556EA044C4FEA144418BF641C4FF0E1
:1003100000084FF00009904271EB030C39D300291B
:1003200019BFB1FA81F701FA07F6B0FA80F700FABF
:1003300007F6C7F120071EBF20FA07FC46EA0C06A5
:100340002037B6FBF4FCA7EB0507103F07F01F0BA7
:10035000CBF120062CFA06F60CFA0BFB44BFB34691
:100360000026202FA4BF5E464FF0000B5BEA060C70
:1003700008BF4FF0010B19EB0B0948EB0608ABFB6C
:10038000027C06FB02CC0BFB03CCC01B71EB0C0107
:10039000C1E70B46024641464846BDE8F08B13B51F
:1003A000084318BF4FF0FF300146AFF30080BDE8AF
:1003B0001C4070470FB41CB50C0007AA009007D072
:1003C0004142A14202D32044401E01E04FF0FF30E1
:1003D000074B7B4469460190069800F0D2F9002053
:1003E000002C01D0009908701CBC5DF814FB0000C3
:1003F000D30300002DE9F04106460024106875295A
:10040000314616A510D0AFF30080002802DA404232
:1004100013A507E031688A0701D512A502E0490754
:1004200004D511A5012401E0AFF3008000210A22C8
:1004300006F1240709E0B0FBF2FCB0FBF2F302FB8B
:100440001C00303078541846491C0028F3D123464C
:100450002A463046BDE8F04100F034B90000000003
:100460002D0000002B000000200000002DE9F041CD
:100470000F460546002028622846E968884770B381
:10048000252805D0D5E901219047286A401CF2E7CC
:10049000E9682846002688476C2804460AD0682C5C
:1004A00008D04C2C35D06A2C31D0742C31D07A2C19
:1004B0002FD016E0E968064628468847B042044631
:1004C00008D16C2E23D04FF480662846E96888470F
:1004D000044606E06C2E03D04FF4807601E01EE067
:1004E0004026E4B1A4F14100192802D8203446F492
:1004F00000663A46214628462E60FFF795FE60B119
:10050000012808D0FF1D27F007070837B4E7802629
:10051000DBE70026D9E73F1DAEE72046B2E7286AB1
:10052000BDE8F08130B505460B462A4613F8014B6D
:1005300012F8010B08B1A042F8D01CB1002802D07B
:100540006D1CF1E7284630BD40EA010310B59B075A
:100550000FD1042A0DD310C808C9121F9C42F8D02D
:1005600020BA19BA884201D9012010BD4FF0FF30DE
:1005700010BD1AB1D30703D0521C07E0002010BDF4
:1005800010F8013B11F8014B1B1B07D110F8013B80
:1005900011F8014B1B1B01D1921EF1D1184610BD61
:1005A00010B5431C02E010F8011B71B18107FAD1AC
:1005B0004FF0013202C88C1A8C4314EAC211F9D0F0
:1005C000C01A0A0603D0C01E10BDC01A10BD0A040E
:1005D00001D0801E10BD0902FCD0401E10BD032AB0
:1005E00040F2308010F0030C00F0158011F8013B50
:1005F000BCF1020F624498BF11F801CB00F8013B37
:1006000038BF11F8013BA2F1040298BF00F801CBFA
:1006100038BF00F8013B11F0030300F0CD80083A29
:10062000C0F0088051F8043B083A51F804CBA0E828
:100630000810F5E7121D5CBF51F8043B40F8043B7D
:10064000AFF30080D20724BF11F8013B11F801CBB2
:1006500048BF11F8012B24BF00F8013B00F801CB83
:1006600048BF00F8012B70474FF0000200B5134659
:1006700094469646203922BFA0E80C50A0E80C50C2
:10068000B1F12001BFF4F7AF090728BFA0E80C5073
:1006900048BF0CC05DF804EB890028BF40F8042B6C
:1006A00008BF704748BF20F8022B11F0804F18BFD9
:1006B00000F8012B7047704770477047004870473B
:1006C000300000202DE9F0470D4699469246044639
:1006D00000F124080168880604D5E06921F01001C2
:1006E000216000E00120A84201DD471B00E0002757
:1006F000A1697A1902EB0900081AA0612078C006E6
:1007000002D42046AFF30080002608E0D4E901219E
:100710001AF806009047206A401C761C20624E455D
:10072000F4DB2078C0060AD52046AFF3008006E04F
:10073000D4E9012130209047206A401C2062381EF5
:10074000A7F10107F4DC07E0D4E9012118F805005E
:100750009047206A401C2062281EA5F10105F3DCA9
:100760002046AFF300802078000602D50220BDE8C5
:10077000F0870120FBE7000001694A1C026108784C
:10078000704700B58FB0CDE90131002105910549D1
:100790007944CDE9031011466846FFF767FE0FB0B4
:1007A00000BD0000E5FFFFFFD1E900239A4202D21D
:1007B000531C0B601070704710B5203AC0F00B80CE
:1007C000B1E81850A0E81850B1E81850A0E8185047
:1007D000203ABFF4F5AF5FEA027C24BFB1E81850BD
:1007E000A0E8185044BF18C918C0BDE810405FEA1F
:1007F000827C24BF51F8043B40F8043B08BF70479B
:10080000D20728BF31F8023B48BF11F8012B28BF9F
:1008100020F8023B48BF00F8012B704700487047A2
:10082000100000200000000030B44FF0013C50F8F0
:10083000042B51F8043BCCFA52F4D51A20D1FCB960
:1008400050F8042B51F8043BCCFA52F4D51A17D1C6
:10085000B4B950F8042B51F8043BCCFA52F4D51A31
:100860000ED16CB950F8042B51F8043BCCFA52F479
:10087000D51A05D1002CDAD030BC4FF000007047FB
:1008800029BAB1FA81F111F01801D1F120008440A8
:10089000F2D1CA40CB4012F0FF0213F0FF0330BC8C
:1008A000D01A70477546FFF7B9FFAE460500694696
:1008B000534620F00700854618B020B5FFF7E8FC46
:1008C000BDE820404FF000064FF000074FF0000851
:1008D0004FF0000BAC46ACE8C009ACE8C009ACE88E
:1008E000C009ACE8C00921F007018D46704710B57A
:1008F0000446AFF300802046BDE81040FFF7B4BCCB
:1009000001491820ABBEFEE7260002007047000038
:10091000FEE7000070B540F27000C2F20000002156
:1009200040F21C15C0F80210C18001704170C2F283
:100930000005A86B002818BF00F0F2FC286850E8FA
:10094000050F296820F0400041E80502E2B128685F
:1009500050E8050F296820F0400041E805029AB1EF
:10096000286850E8050F296820F0400041E805029A
:1009700052B1286850E8050F296820F0400041E88E
:100980000502002ADAD100BF286850E8030F296861
:1009900020F4807041E80302BAB3286850E8030FDE
:1009A000296820F4807041E8030272B3286850E897
:1009B000030F296820F4807041E803022AB32868F5
:1009C00050E8030F296820F4807041E80302002AF0
:1009D000DAD11AE0286850E8050F296820F00100F4
:1009E00041E80502DAB1286850E8050F296820F0CF
:1009F000010041E8050292B1286850E8050F296816
:100A000020F0010041E805024AB1286850E8050FCE
:100A1000296820F0010041E80502002ADAD142F2FB
:100A2000200000BF296851E8031F2A68014342E8FB
:100A30000313C3B1296851E8031F2A68014342E840
:100A4000031383B1296851E8031F2A68014342E870
:100A5000031343B1296851E8031F2A68014342E8A0
:100A60000313002BDED1202085F83E0000202864EF
:100A70000AA600F001FF0446307868B129680A68C8
:100A8000120644BF0136486000F0F6FE001B1F2826
:100A900028BF70BDF0E700BF70BD00BF52454144A4
:100AA000590D0A002DE9F04FA3B000F0E5FE40F229
:100AB000700AC2F2000A9AF801109AF80020069013
:100AC000914203D123B0BDE8F08F00BF40F260191E
:100AD00040F2D804C2F200094FF00008C2F200044C
:100AE0000DE000BF9AF80100013000F007008AF81D
:100AF00001009AF801009AF800108842E2D09AF8B2
:100B00000100CDF8608000EB4000810119F8016020
:100B1000CDF85C80002EE5D009EB801BFFF7CAFB07
:100B20000568A85DC00721D09BF80160002ED9D0D0
:100B3000A85DC00712D09BF80260002ED2D0A85D3D
:100B4000C00711D09BF80360002ECBD0A85DC00772
:100B500044D01BF8046F002EE3D1C3E70BF1010B67
:100B60007B2EBFD104E000BF0BF1020B7B2EB9D16D
:100B700022208DF8740046F66D70C6F26450CDF8F0
:100B8000750043F62220ADF8790058461DA98DF86E
:100B90007B80FFF7C7FC0028A4D010F8071F0029AE
:100BA0001CBF695C5FEAC17125D0417800291CBF78
:100BB000695C5FEAC17117D0817800291CBF695C4C
:100BC0005FEAC17116D0C17800291CBF695C5FEA79
:100BD000C17100F0038110F8041FE0E70BF1030B73
:100BE0007B2E7FF47FAFC3E70130017822297FF4A9
:100BF00079AF04E00230017822297FF473AF014617
:100C000011F8017F0022002F6ED0222F19AE6CD078
:100C100083780122002B8DF8647066D0222B64D07B
:100C2000C7780222002F8DF865305ED0222F5CD06D
:100C300003790322002B8DF8667056D0222B54D0F6
:100C400047790422002F8DF867304ED0222F4CD0E8
:100C500083790522002B8DF8687046D0222B44D072
:100C6000C7790622002F8DF869303ED0222F3CD064
:100C7000037A07228DF86A70BBB3222B35D0477AEE
:100C800008228DF86B3087B3222F2ED0837A092269
:100C90008DF86C704BB3222B27D0C77A0A228DF8BF
:100CA0006D3017B3222F20D0037B0B228DF86E708E
:100CB000DBB1222B19D0477B0C228DF86F30A7B106
:100CC000222F12D0837B0D228DF870706BB1222BF6
:100CD0000BD0C07B0E228DF8713030B122281CBFA2
:100CE0008DF872000F2200E019AE885C06F80280D1
:100CF00022287FF4F7AE19AD28460FF21C510522C9
:100D0000FFF722FCC0B328460FF214510622FFF76A
:100D10001BFC00287FF4E6AE58460FF20C5118AACF
:100D200001F086FB00287FF4DDAE58460FF2FC414F
:100D300017AA01F07DFB179A189912F1640F6FF052
:100D40006303D8BF1A4611F1640FD8BF194664294E
:100D50004FF06403A8BF1946642A01EB8101A8BFC4
:100D60001A46490000284FF00000AAF8021002EBD2
:100D7000820208BF500003E00021AAF80210002000
:100D80000AB203B2D51A15F57A7F4FF61843CFF69B
:100D9000FF73D8BF1D46B5F57A7F02FA80F64FF48F
:100DA0007A77A8BF3D4616F57A7FD8BF1E46B6F5BE
:100DB0007A7F41EA0001A8BF3E460904AAF8040070
:100DC00012D100F059FD074620680168090625D4B4
:100DD00000F052FDC01B0528F6D9ADE003300178C4
:100DE00022297FF47FAE0AE7C5F3072B86EA0500C8
:100DF000C6F3072180EA0B00484080F00700059108
:100E0000049000F039FD074620680168090615D4F2
:100E100000F032FDC01B0528F6D93AE1AA21416055
:100E200000F02AFD074600BF20680168090615D4B6
:100E300000F022FDC01B0528F6D97DE0AA21416003
:100E400000F01AFD074600BF20680168090615D4A6
:100E500000F012FDC01B0528F6D91AE155214160AA
:100E600000F00AFD074600BF20680168090615D496
:100E700000F002FDC01B0528F6D95DE05521416058
:100E800000F0FAFC074600BF20680168090615D487
:100E900000F0F2FCC01B0528F6D9FAE002214160FF
:100EA00000F0EAFC074620680168090616D400F045
:100EB000E3FCC01B0528F6D93EE000BF06214160D7
:100EC00000F0DAFC074620680168090616D400F035
:100ED000D3FCC01B0528F6D9DBE000BF022141602E
:100EE00000F0CAFC074620680168090616D400F025
:100EF000C3FCC01B0528F6D91EE000BF01214160DC
:100F000000F0BAFC074620680168090662D400F0C8
:100F1000B3FCC01B0528F6D9BBE000BFC0F80480B5
:100F200000F0AAFC074620680068400604D400F0E0
:100F3000A3FCC01B0628F6D300F09EFC074600BFAA
:100F400020680168090605D400F096FCC01B05283E
:100F5000F6D93AE1AA21416000F08EFC074600BFB5
:100F600020680168090605D400F086FCC01B05282E
:100F7000F6D92AE15521416000F07EFC074600BF0A
:100F800020680168090605D400F076FCC01B05281E
:100F9000F6D91AE10221416000F06EFC0746206894
:100FA0000168090606D400F067FCC01B0528F6D9C5
:100FB0000BE100BF0221416000F05EFC07462068A3
:100FC0000168090616D400F057FCC01B0528F6D9A5
:100FD000FBE000BFC0F804B000F04EFC07462068FC
:100FE0000168090616D400F047FCC01B0528F6D995
:100FF0004FE000BFC0F8048000F03EFC07462068C8
:101000000068400600F1E18000F036FCC01B0528B6
:10101000F5D9DAE0E9B2416000F02EFC074620681D
:101020000168090606D400F027FCC01B0528F6D984
:101030002FE000BF0599416000F01EFC07462068C4
:101040000168090606D400F017FCC01B0528F6D974
:101050001FE000BFF1B2416000F00EFC07462068BF
:101060000168090606D400F007FCC01B0528F6D964
:101070000FE000BF0499C9B2416000F0FDFB0746D4
:1010800020680068400604D400F0F6FBC01B062868
:10109000F6D300F0F1FB074620680168090605D485
:1010A00000F0EAFBC01B0528F6D98EE0AA214160BA
:1010B00000F0E2FB074600BF20680168090605D47E
:1010C00000F0DAFBC01B0528F6D97EE0552141600F
:1010D00000F0D2FB074600BF20680168090605D46E
:1010E00000F0CAFBC01B0528F6D96EE0062141605E
:1010F00000F0C2FB074620680168090606D400F02C
:10110000BBFBC01B0528F6D95FE000BF0121416091
:1011100000F0B2FB074620680168090606D400F01B
:10112000ABFBC01B0528F6D94FE000BFC0F804B0E8
:1011300000F0A2FB074620680168090606D400F00B
:101140009BFBC01B0528F6D93FE000BFE9B2416018
:1011500000F092FB074620680168090606D400F0FB
:101160008BFBC01B0528F6D92FE000BF0599416015
:1011700000F082FB074620680168090606D400F0EB
:101180007BFBC01B0528F6D91FE000BFF1B2416010
:1011900000F072FB074620680168090606D400F0DB
:1011A0006BFBC01B0528F6D90FE000BF0499C9B23C
:1011B000416000F061FB074620680068400604D4E7
:1011C00000F05AFBC01B0628F6D3BAF90400BAF99E
:1011D00002308DE8610007AD069F2846402114A229
:1011E0000397FFF7E7F800F047FB07462878002849
:1011F0003FF478AC40F21C11C2F2000109680A68A1
:10120000120644BF0135486000F036FBC01B1F28A2
:10121000ECD3FFF767BC00BF73746F700000000071
:101220007370656564000000540000005900000000
:101230004F4B20543D256420593D2564204C3D25CD
:101240006420523D256420743D256C750D0A000014
:101250002DE9F04381B040F21C10C2F20000056895
:101260002868000706D5002000902868009068686C
:10127000009000982868800602D401B0BDE8F08391
:1012800040F2700640F2607440F26018C2F200064C
:101290004FF00009C2F20004C2F2000807E000BFEC
:1012A000A6F8069084F8009028688006E5D568685E
:1012B000F188C0B27B2801D00029F5D0F188BF2980
:1012C00003D37B28A6F80690EED1F1887D2801F1A2
:1012D0000102F2806054F18804F80190E4D1307882
:1012E0007178013000F007078F42D9D03078F1884B
:1012F00000EB400008EB80104A1C2146FFF76FF915
:101300003770CDE740F27800C2F2000000F050B82C
:1013100070470000EFF3108072B600BFFEE70000D8
:1013200070B5866D044600F0A7FA94F835100229CE
:1013300028D105462068216C026822F0160202605E
:10134000426922F08002426109B9A16C19B10168B9
:1013500021F008010160016821F00101016000BF76
:1013600020680068C00715D000F086FA401B0628E8
:10137000F6D320206065032084F83500002184F82E
:10138000341070BD802060650120002184F8341085
:1013900070BD00BFE06D3F2101FA00F0B060012098
:1013A00084F835000020002184F8341070BD00005E
:1013B000F0B581B00021009140F20801C2F20001B5
:1013C0000B68D0E9166148F2B51537680822C1F6F6
:1013D0004E358A403A42A3FB05350CD003681C68A1
:1013E000640708D51C6824F004041C60B260426DD8
:1013F00042F00102426501228A403A4208D0036865
:101400005B691B0604D5B260426D42F00202426580
:1014100004228A403A4208D003681B689B0704D51F
:10142000B260426D42F00402426510228A403A42A4
:1014300019D001680B681B0715D5B2600B680A68E4
:101440005B0309D4D20509D40A6822F008020A60B5
:10145000016C29B907E000BF110341D4016C11B13F
:10146000044688472046C26D202101FA02F33B4220
:1014700043D001680F68FF063FD5B36090F8357020
:101480000B68052F1CD123F016030B604B6923F06A
:1014900080034B61036C0BB9836C1BB10B6823F0A9
:1014A00008030B603F219140B160012180F83510A5
:1014B000016D0022002980F8342054D158E000BF8B
:1014C0000A685B0310D4D20512D40A6822F0100215
:1014D0000A60012180F83510002180F8341007E0FF
:1014E000816C0029BCD1BEE7110301D4416C00E03E
:1014F000C16B11B1044688472046416DC1B3416DAF
:10150000C9072ED0052180F835100168AA0A0B689A
:1015100023F001030B60009B0133934200931AD820
:101520000B68DB0717D0009B01339342009312D85E
:101530000B68DB070FD0009B0133934200930AD85E
:101540000B68DB0707D0009B01339342009302D85E
:101550000B68DB07DFD1012180F83510002180F80E
:101560003410C16C21B101B0BDE8F040084700BFA4
:1015700001B0F0BD2DE9F041044600F07DF9ECB179
:101580000546022084F835000020216884F83400E4
:10159000086820F00100086021680868C00711D0C1
:1015A00000F06AF9401B0528F6D903252023032003
:1015B000636584F83550BDE8F08100BF0120BDE8C7
:1015C000F08100BF086848F23F02CFF21002D4E970
:1015D000013500EA020C04F10C0898E8C10143EA65
:1015E0000C032B431843D4E9072E304338431043F0
:1015F000626A40EA0E00042A40EA08031CD1206B0C
:10160000D4E90A2E40EA0E00184308604869BEF18A
:10161000000F20F0030040EA020040F0040C11D05B
:10162000B8F5005F36D0B8F1000F45D1022A46D098
:10163000012A3BD032B942E00B60486920F0070034
:1016400040EA020C01F0F8004AF6AB221038CAF664
:10165000AA22A0FB02231A0942F21663C1F814C0A1
:10166000C0F600039A5C40F2FF335F284FF03F0062
:1016700021EA030100FA02F088BF0431C4E916121E
:101680008860002301250020636584F83550BDE89B
:10169000F08100BF032AD5D8012540230120DFE8CF
:1016A00002F0030E030500BF82E700BFAEF1C07079
:1016B000B0FA80F0400904E0032A04D3C2D1CEF38B
:1016C00000600028BED0012540230120636584F816
:1016D0003550BDE8F08100002DE9F04F83B000F1F6
:1016E000200200F13E4741F60045009207F1FF77E6
:1016F000C4F2020508224FEAB726A84208BF072213
:1017000000254FF000084FF00009072E38BF4FEAC0
:10171000B72201920AE000BF09F1010908F10208AD
:10172000B9F1100F05F1040500F0A2800F68012245
:1017300002FA09FE17EA0E0AEED0D1F804C003221D
:101740000CF003077E1E02FA08F4012E6FEA040B68
:1017500012D88468CE6804EA0B0406FA08F634430B
:101760008460446824EA0E06CCF3001404FA09F4F9
:101770002643466004E000BF032F01D103271EE08B
:10178000C6688C6806EA0B0604FA08F42643022FA2
:10179000C66014D16FF00302009E02EA590756F8A2
:1017A00007C005F01C040F220B69A2402CEA0202BC
:1017B000A3401A43F251D1F804C00CF003070268A9
:1017C00007FA08F302EA0B021A431CF4403F0260D6
:1017D000A2D0002243F644030292C4F202031A6824
:1017E00043F6004442F480421A601A68C4F20104CD
:1017F00002F480420292029A29F003024FF6084C4A
:101800002244CFF6FF7C52F80C3005F00C070F266F
:10181000BE40B343019E06FA07F73B4342F80C3043
:10182000A2684B6842EA0A0743F60C4CDE0258BF36
:1018300022EA0A07A760C4F2010CDCF800209E022D
:1018400042EA0A0758BF22EA0A07CCF80070626829
:101850009E0342EA0A0758BF22EA0A076760226825
:10186000DB0342EA0A0758BF22EA0A07276053E768
:1018700003B0BDE8F08F000040F62000C2F2000087
:101880000068704740F2000040F62001C2F20000FC
:10189000C2F2000100780A68104408607047000036
:1018A00080B543F60040C4F20200016841F40071C3
:1018B0000160016841F480610160016841F4807158
:1018C0000160032000F086F80F2000F005F800F01A
:1018D00027F8002080BD000070B540F20006C2F27B
:1018E000000640F208013278C2F200014FF47A7328
:1018F0000968B3FBF2F20446B1FBF2F1084600F0CE
:1019000061FB0F2C4FF0010508D838B94FF0FF30BC
:1019100021460022002500F031F87460284670BD91
:1019200082B0002043F640010190C4F202014A68EF
:1019300042F480424A604A6802F480420192019A6D
:101940000090086840F080500860086800F08050FF
:101950000090009802B07047002848BF704700F020
:101960001F01012202FA01F11C2202EAD0004EF20C
:101970000012CEF2000281507047000010B54EF602
:101980000C5CCEF2000CDCF80030C3F3022E8EF0BB
:101990000704042C28BF0424BEF103034FF0FF3ECC
:1019A0000EFA04F438BF0023A14399400EFA03F362
:1019B0009A43114300F00F0200F160430901043A19
:1019C00003F564436244002848BF02F10C03197018
:1019D00010BD00004EF60C51CEF200010A684FF621
:1019E000FF031A4060F30A2242F0806040F0FD706D
:1019F00008607047002804BF012070472DE9F041BE
:101A000043F60808C4F202080446D8F8F8030D4665
:101A100000F00700814207D988F8F853D8F8F80396
:101A200000F00700A84277D12068810717D5410749
:101A300005D5D8F8001041F4E051C8F800100107AE
:101A400005D5D8F8001041F46041C8F80010D8F866
:101A50000010A26821F0F0011143C8F80010C0077F
:101A600040D1D8F8F80300F00700854207D288F883
:101A7000F853D8F8F80300F00700A8424CD12068CA
:101A8000410707D5D8F80010E26821F4E05111436E
:101A9000C8F80010000708D5D8F80000216920F424
:101AA000604040EAC100C8F8000000F07DF8D8F8B6
:101AB000001042F2FE52C1F30311C0F60002515C65
:101AC00040F2080220FA01F140F20400C2F20000E4
:101AD0000068C2F200021160FFF7FEFE0020BDE8C0
:101AE000F08100BF6068811E022907D258F8081CE7
:101AF00089015CBF0120BDE8F08111E0012807D118
:101B000058F8081C89035CBF0120BDE8F08107E09C
:101B100058F8081C890703D40120BDE8F08100BFF4
:101B2000D8F8001021F003010843C8F80000FFF7BF
:101B3000A3FE064641F28837D8F80000616800F03D
:101B40000C00B0EB810F8CD0FFF796FE801BB842E3
:101B5000F2D90320BDE8F08140F2080043F6080105
:101B6000C2F20000C4F202010068096842F20E628B
:101B7000C1F38221C0F60002515CC84070470000EA
:101B800040F2080043F60801C2F20000C4F202016C
:101B90000068096842F20E62C1F34231C0F60002E9
:101BA000515CC8407047000010B543F60404C4F20D
:101BB00002046168C1F3810142F20040C0F2F40006
:101BC000DFE801F002040A0210BD00BF41F200206C
:101BD000C0F27A0010BD00BF216801F03F02216809
:101BE00023684902C3F3881106D4A1FB0001002336
:101BF000FEF768FB07E000BF41F20020C0F27A0068
:101C00004843B0FBF2F021680222C1F3014102EB2C
:101C10004101B0FBF1F010BD002804BF0120704766
:101C20002DE9F04182B00446007843F60006C00773
:101C3000C4F202060CD0B06800F00C00042840F09A
:101C400081803068800303D56068002800F06881D7
:101C5000207880071BD5B06810F00C0F09D0B06851
:101C600000F00C00082840F087807068400200F106
:101C700083803068800703D5E068012840F05081F8
:101C80003068216920F0F80040EAC1003060207817
:101C9000000713D4207840072AD4A569002D00F04E
:101CA0003A81B06800F00C00082840F0A580012DB2
:101CB00040F00E81012002B0BDE8F081606900288B
:101CC00000F082800020C4F247200121C0F8801E6D
:101CD000FFF7D2FD054600BF706F8007DAD4FFF72B
:101CE000CBFD401B0228F7D9032002B0BDE8F081EC
:101CF000306C5FEAC0080AD400200190306C40F0DC
:101D000080503064306C00F080500190019847F2B0
:101D10000007C4F200073868C00547D4386840F4AB
:101D200080703860FFF7A8FD054600BF3868C00521
:101D30003CD4FFF7A1FD401B0228F7D9032002B0D5
:101D4000BDE8F081B06800F00C00082803D170688D
:101D500040023FF576AF61683068B1F5803F07D04B
:101D6000B1F5A02F40F09A8040F4802030603068B8
:101D700040F4803030609AE0E068002840F20000D3
:101D8000C4F247205CD001210160FFF775FD0546D4
:101D9000306880073FF574AFFFF76EFD401B0228E7
:101DA000F6D9032002B0BDE8F08100BFA168306F12
:101DB000012905D0052955D140F004003067306F66
:101DC00040F00100306756E00020C4F247200021B7
:101DD000C0F8801EFFF750FD054600BF706F8007FA
:101DE0007FF558AFFFF748FD401B0228F6D90320C6
:101DF00002B0BDE8F08100BF0027C4F247270020F1
:101E00003866FFF739FD022D05460DD13068800197
:101E100040F18A80FFF730FD401B02284FF003009D
:101E2000F4D902B0BDE8F0813068800173D5FFF7C6
:101E300023FD401B02284FF00300F5D9F1E700BF56
:101E400000210160FFF718FD054600BF30688007DC
:101E50007FF51DAFFFF710FD401B02284FF0030078
:101E6000F4D9DEE720F001003067306F002920F060
:101E7000040030677AD0FFF7FFFC054641F288374F
:101E8000306F800700F18480FFF7F6FC401BB842FA
:101E9000F6D9032002B0BDE8F08100BF20F4803005
:101EA00030603068002920F4802030607AD0FFF75D
:101EB000E3FC0546306880033FF5CAAEFFF7DCFC63
:101EC000401B6428F6D9032002B0BDE8F08100BFB2
:101ED0007068E16900F480028A4221D1216A00F031
:101EE0003F028A421CD147F6C071626A0140B1EBE1
:101EF000821F15D1A16A4FF6FF73C903994300F4FD
:101F00004032A1F580318A420AD1E16A00F0706066
:101F1000B0EB016F04D1002002B0BDE8F08100BF3A
:101F2000012002B0BDE8F08104F11C052FCD08436B
:101F300040EA8210D9034FF6FF729143A1F5803138
:101F400040EA05600843706001203866FFF794FCA2
:101F5000044600BF30688001DDD4FFF78DFC001B14
:101F600002284FF00300F5D95BE700BFFFF784FCC0
:101F7000054641F2883700BF306F800708D5FFF76C
:101F80007BFC401BB8424FF00300F5D949E700BF86
:101F9000B8F1000F3FF581AE306C20F08050306416
:101FA0007BE600BFFFF768FC054600BF3068800392
:101FB0007FF54EAEFFF760FC401B64284FF0030036
:101FC000F4D92EE7411E0020B0EB116F1CBF012099
:101FD00070474EF21002CEF2000251604EF62351CD
:101FE000CEF20001F0230B70072190601160704762
:101FF000002804BF0120704710B5044690F83D004A
:1020000028B9002084F83C00204600F021F8242064
:1020100084F83D002068C16821F40051C160204669
:1020200000F090F92068016921F490410161416953
:1020300021F02A014161C16841F40051C1600020D2
:102040002021206484F83D1084F83E1010BD00006B
:1020500070B586B0026844F20043C4F20003002168
:102060009A42CDE90411CDE9021101915AD044F60A
:102070000041C4F200018A427BD10546002643F6A6
:1020800030000096C4F20200016941F400210161B0
:10209000016901F40021009100990096016841F066
:1020A000010101600068022100F001000090009829
:1020B000032001900490082005900020CDE902162D
:1020C000C4F2020001A9FFF707FB40F2780446F2D0
:1020D0004000C2F20004C4F202004FF0006184E844
:1020E00043004FF480304FF480624FF48073C4E9B2
:1020F00008062046C4E90362C4E90566E361FFF708
:1021000039FA002818BFFFF705F93420052100220D
:10211000AC63A563FFF732FC3420FFF71DFC06B06B
:1021200070BD00BF43F630000091C4F202000269A6
:1021300042F400320261026902F400320092009A15
:102140000091026842F001020260006800F00100A4
:10215000009000980C2001900220CDE9020103209C
:102160000490072005900020C4F2020001A9FFF7A7
:10217000B3FA06B070BD0000FEE7000080B582B083
:102180000020019043F63000C4F2020001680022F2
:1021900041F4001101600068002100F4001001907A
:1021A00001980D20FFF7EAFB0D2002B0BDE880404A
:1021B000FFF7D2BB82B0002043F630010190C4F299
:1021C00002010A6842F080020A600A6802F0800296
:1021D0000192019A0090086840F0010008600868C8
:1021E00000F001000090009802B0704780B540F206
:1021F0001C1044F60041C2F20000C4F200010023AA
:102200004FF00C0C4FF4E13280E80E00C0E90333CC
:10221000C0E905C3C361FFF7EBFE002808BF80BD1E
:10222000BDE88040FFF776B880B540F2D80044F2B0
:102230000041C2F20000C4F2000100234FF00C0C78
:102240004FF4E13280E80E00C0E90333C0E905C372
:10225000C361FFF7CDFE002808BF80BDBDE8804008
:10226000FFF758B8FEE70000FEE7000070470000E7
:1022700070470000FFF706BB70B592B006AC204671
:102280003021FEF7F1F9002543F640000595CDE930
:102290000355CDE901550095C4F2020001680226FC
:1022A00041F080510160006800F08050009000987B
:1022B00047F200000095C4F20000016841F480413B
:1022C0000160006800F480400090009801200690B2
:1022D0004FF4803007904FF480000D9008200E904E
:1022E0004FF4A870CDE90F060420119020460C96FB
:1022F000FFF792FC20B1EFF3108072B6FEE700BF4B
:102300000F20CDE901064FF4A05004904FF4805007
:10231000059001A805210395FFF76CFB20B1EFF3B1
:10232000108072B6FEE700BF12B070BD4EF6885046
:10233000CEF20000016841F47001016070470000B6
:10234000FEF786BFB0B50446006804F108030ECB63
:102350000569194325F440552A4302616269E3691E
:102360001143C268194349F20C639A431143C16097
:102370004169A26921F4407141F20043114340F4E4
:102380008062C4F201039A42416103D1FFF7F8FB76
:1023900002E000BFFFF7E0FBE1694FF69C75636860
:1023A0001922C0F6FF75B1F5004FA0FB02011FD145
:1023B0005A00DB0FFDF786FF48F21F51C5F2EB1103
:1023C000A0FB01235A0905F1805302FB03003223CD
:1023D00003EBC000A0FB01014FF4F87000EA1110FC
:1023E00000EB0210C1F34211084421688860B0BDBF
:1023F0009A009B0FFDF766FF48F21F51C5F2EB11E3
:10240000A0FB01235A0902FB0500322303EB001055
:10241000A0FB0101F02000EA511000EB0210C1F313
:102420004311084421688860B0BD0000FEE7000049
:102430002DE9F04186B00646084690460F46FEF765
:10244000AFF80546143810F1180FC0F09080222024
:102450006C468DF80000601C39462A46FEF7BFF82E
:10246000281943F62221A0F801100021C17030463E
:102470002146FEF757F8002879D0441914F8035F75
:102480003DB3FDF717FF0068415DC90721D06178B2
:1024900000291CBF415C5FEAC17113D0A1780029FB
:1024A0001CBF415C5FEAC17112D0E17800291CBFFA
:1024B000415C5FEAC17167D014F8045F002DE3D17D
:1024C00007E000BF0134B8F1000F05D14FE000BFB5
:1024D0000234B8F1000F4AD020782B280CD02D28D8
:1024E0000BD101344FF0FF302778A7F13A0111F1F9
:1024F0000A0F09D23BE000BF013401202778A7F181
:102500003A0111F10A0F32D3A21C002312F8016C18
:1025100003EB830307EB4303A6F13007092FA3F175
:10252000300321D8177803EB830306EB4303A7F1AD
:102530003006092EA3F1300316D8567803EB830337
:1025400007EB4303A6F13007092FA3F130030BD8A3
:10255000977803EB830306EB4303A7F13006303B88
:102560000A2E02F10402D1D311F10A0F04D24FF066
:10257000FF3006B0BDE8F0815843C8F800000020E5
:1025800006B0BDE8F08100BF0334B8F1000FA3D15D
:10259000EDE70000FFF784F9FFF76EFEFFF70AFE94
:1025A000FFF7ECFDFFF722FEFFF73EFEFEF7B2F964
:1025B000FEF778FAFCE7000010B500290AD0087889
:1025C000002807D005487844FEF72EF9002801D0EE
:1025D000002010BD0248784410BD00007A000000C1
:1025E00072000000F1EE100A4FF6FF71C0F2C03128
:1025F00020EA010040F04070E1EE100A7047000050
:1026000000000000000001020304060708090000A2
:102610000000010203040006101600061016000058
:10262000502700080000002010000000EC01000806
:102630006027000810000020180E00000C0200089F
:102640001001000043000000F8FFFFFF0040404081
:102650004040404040404141414141404040404075
:102660004040404040404040404040404005020221
:1026700002020202020202020202020202202020E0
:10268000202020202020200202020202020290903C
:10269000909090901010101010101010101010103A
:1026A000101010101010101002020202020288888E
:1026B000888888880808080808080808080808089A
:1026C0000808080808080808020202024000000082
:1026D00000000000000000000000000000000000FA
:1026E00000000000000000000000000000000000EA
:1026F00000000000000000000000000000000000DA
:1027000000000000000000000000000000000000C9
:1027100000000000000000000000000000000000B9
:1027200000000000000000000000000000000000A9
:102730000000000000000000000000000000000099
:102740000000000000000000000000000000000089
:1027500001000000100000000024F4000000000050
:040000050800018965
:00000001FF
