:020000040800F2
:10000000D8070020B901000899210008F31D000855
:1000100000000000000000000000000000000000E0
:100020000000000000000000000000009D2100080A
:1000300000000000000000009B2100089F21000834
:10004000CB01000800000000CB010008CB01000834
:10005000CB010008CB010008CB010008CB01000850
:1000600000000000CB010008CB010008CB01000814
:10007000CB010008CB010008CB0100080000000004
:10008000CB0100080000000000000000CB010008C8
:1000900000000000CB010008CB010008CB010008E4
:1000A000CB010008CB010008CB010008CB01000800
:1000B0001127000800000000000000000000000000
:1000C00000F002F800F04CF812A030C808382418EC
:1000D0002D18AC4201D100F043F80FCCA246AB463C
:1000E0000CA730CF2D1B083F3F197C427F1E544484
:1000F0002D090426F441641EAC4201D300F030F80F
:100100000126334200D0FB1A3343984754465D46DC
:10011000DFE70000F428000014290000103A02D3A1
:1001200078C878C1FAD8520701D330C830C101D598
:1001300004680C6070470000704700000023002432
:1001400000250026103A01D378C1FBD8520700D30E
:1001500030C100D50B6070471FB51FBD10B510BD75
:1001600000F0F5F81146FFF7F7FF02F0D9FA00F0BA
:100170000DF903B4FFF7F2FF03BC00F013F9000020
:1001800070B505460C46164602E00FCC0FC5103E72
:10019000102EFAD2082E02D303CC03C5083E042E3B
:1001A00007D301CC01C5361F03E021782970641CF8
:1001B0006D1C761EF9D270BD07488047074800477E
:1001C000FEE7FEE7FEE7FEE7FEE7FEE70448054937
:1001D000054A064B7047000035220008C1000008A0
:1001E000D8010020D8070020D8030020D803002021
:1001F000431A70B593421BD28918801804E0491E37
:10020000401E0B78521E03709307F8D106E0103998
:10021000103878C9103978C01038103A102AF6D240
:1002200003E0091F001F0B680360121FF9D570BDA2
:10023000FFF7A6FF70BDF8B50646144608438007D1
:1002400007D0751AA54219D20819102D13D23119E9
:1002500007E03046FFF7CCFFF8BD401E491E02788C
:100260000A70641EF9D2F8BD471B2A46394600F0D1
:100270002DF8641B3846A542F6D3011B22463046B2
:1002800000F024F8F8BD01E004C0091F0429FBD2E6
:100290008B0701D50280801CC90700D0027070470F
:1002A00000290BD0C30702D00270401C491E02294E
:1002B00004D3830702D50280801C891EE3E7002255
:1002C000EEE70022DFE7704770477047F8B5042A71
:1002D0002CD3830712D00B78491C0370401C521E8C
:1002E00083070BD00B78491C0370401C521E8307F8
:1002F00004D00B78491C0370401C521E8B079B0FC7
:1003000005D0C91ADF002023DE1B08C90AE0FFF769
:1003100037FFF8BD1D4608C9FD401C46B4402C43BC
:1003200010C0121F042AF5D2F308C91A521EF0D4C5
:100330000B78491C0370401C521EEAD40B78491CF0
:100340000370401C012AE4D409780170F8BD754699
:1003500000F024F8AE46050069465346C008C000C8
:10036000854618B020B5FFF731FF60BCB6460026C1
:100370000027C0C5C0C5C0C5C0C5C0C5C0C5C0C5B3
:10038000C0C5403D490849008D46704710B5044638
:10039000C046C0462046FFF7ECFE10BD004870473F
:1003A0001000002001491820ABBEFEE72600020025
:1003B0007047000070B586B000240594049403943F
:1003C000029401941A4801680125294301600068DC
:1003D000284000900098052006070221304622465A
:1003E00000F0F2FA304629462A4600F0EDFA2021C4
:1003F00030462A4600F0E8FA04940394029523203C
:10040000019001A9304600F007FAC74EB48074800D
:10041000347000F0E1FAB060F4607470C1480068B4
:100420000168294301600F21016206B070BDC0461A
:1004300034100240F0B587B000F0CEFA0090B94811
:100440000068C169090700D558E1C169890700D56D
:100450005AE1C169490700D55CE1C169C90701D00A
:100460000121016205200007019000200121029175
:10047000AD4F04E00499481C2F2900D324E1024623
:10048000A8480068C169890600D41DE104927D78FE
:10049000466A202D0FD33C461034394618312F467A
:1004A000083F20463A46FFF7A3FEF8B29E4F265477
:1004B000EE1F7E7005E0781906746E1C7E70032DA9
:1004C000D8D3002423463819017CAA2951D1417C74
:1004D00055294ED1817C0A460D3AD2B2F42A48D928
:1004E000F5B2CA1CD2B2A4180694E4B20594AC4288
:1004F00000D9DBE0074612373C787D786540022959
:1005000027D0BC786540032923D0FC7865400429B6
:100510001FD03C79654005291BD07C7965400629B0
:1005200017D0BC796540072913D0FC7965400829AC
:100530000FD03C7A654009290BD07C7A65400A29A6
:1005400007D0BC7A6C400B2901D1254601E0FD7A29
:100550006540754F069CE419E47BA54209D1103033
:10056000C3780393851C4B1EDBB2032B09D20023F7
:1005700018E05B1CDCB2F0B2191DC9B28142A2D9ED
:1005800094E00C270F4000231E462C785C406B78CB
:100590006340AC785C40EB7863402D1D361DF4B2AF
:1005A000BC42F2D103260E405F4F0CD02C78634042
:1005B000012E08D06F785F40022E01D13B4601E04A
:1005C000AB787B40584F8218521E127893425ED10E
:1005D000039A022A41D0012A07D0002A57D10229C2
:1005E00055D100F0F9F9B86051E006294FD14179B1
:1005F00003910579C679847900F0EEF9F86020025C
:10060000801982B2511E8A412902039BC9180B042A
:10061000029B00D11346012B434F38D104B20DB2D7
:1006200000F0DAF9B860A8B27988884203D1B888B6
:10063000A1B281422BD0BC807D802846214601F0AA
:100640005DFD2C43601E214681413970624262414A
:100650002021019800F0B8F919E0022917D100F023
:10066000BBF9B8607888B98889B201430CD00024FE
:10067000BC807C802046214601F040FD3C7020215A
:100680000122019800F0A0F900F0A6F9F86078784E
:100690000699461A0599884205D038461030411807
:1006A000F2B2FFF7C8FD7E70002363E7F1B21529AF
:1006B00000D2DFE63846103009180C390C242246E7
:1006C000FFF7B9FD7C70D5E6F8680099091A0A09A8
:1006D0000121182A0A4600D80022002800D00292E0
:1006E000019C2046029A00F06FF93878424242415C
:1006F0002021204600F068F907B0F0BD0821016212
:10070000C169890700D4A4E602210162C1694907D1
:1007100000D4A2E604210162C169C90700D09FE6A6
:10072000A0E6C0463C01002074000020EFF31080DA
:1007300072B6FEE770B500282CD0014624314A7805
:10074000022A29D103681C68012294431C601C689A
:100750000E25AC431C60446C25682D4B1D40256064
:10076000046C1C2525401446AC402A4D2E682643B7
:100770002E60846CC56C6560046D002C05D0256806
:100780001D402560436D806D58604A700020002236
:100790000A7070BD012070BD0422C26301200022D6
:1007A0000A7070BD70B5014624314A78022A2BD1F7
:1007B00003681C68012294431C601C680E25AC432E
:1007C0001C60446C2568124B1D402560046C1C2580
:1007D00025401446AC400F4D2E6826432E60846C95
:1007E000C56C6560046D002C05D025681D40256032
:1007F000436D846D5C6000240C704A70816B00292D
:1008000000D08847204670BD0421C163012070BD1F
:10081000FFFEFFFF04000240F0B58CB00A900B9180
:100820000968002900D1C2E062480A9A824201D0D8
:10083000052000E0032000900A982030019000235A
:1008400008931D46099310E00A4332605B1C0B9825
:1008500001680846D840099A08320992089A121D80
:100860000892AD1C002800D1A1E0012006469E4060
:100870003140EBD00793039004910A9A0324204659
:10088000A840C1432B460B98456828462040471E88
:10089000012F0691029505930FD894680C400B998F
:1008A000CF689F4027439760EC06E40F079B9C406E
:1008B0005768B7432743576005E00328079B02D1D9
:1008C0002046029D1EE00A9FFC6806990C400B9A88
:1008D000966805998E402643FE600228029D11D13C
:1008E0001C20089908400F228240DC08A4000199CE
:1008F0000E5996430B9F3A69824032430A517D68F4
:1009000003202840059B98400A9A146806990C40D9
:1009100004431460A8031D46079B800F0499039F9E
:1009200094D003201A46824323488018026E05247F
:1009300024070A9EA6420AD0214C0A9EA64207D04E
:10094000204C0A9EA642009F02D1022700E0002709
:100950001824099E34400F26A640B2436030A740B9
:1009600017430760144802680B984068C40201D519
:100970000A4300E08A43114E0F4C226062688402F1
:1009800001D50A4300E08A430B4C6260726884031D
:1009900005D50A4372603268C00306D554E78A431E
:1009A00072603268C00300D54EE78A434DE70CB051
:1009B000F0BDC046000C00500018024080180240F4
:1009C0000004005000080050002A02D01822815074
:1009D0007047282281507047054800687047C0461C
:1009E0001E48007802490A68101808607047C0461F
:1009F000D001002010B501242002CA490A68024330
:100A00000A60032000F00AF8002801D0204610BD3B
:100A100000F026F80024204610BDC04670B50F4EE9
:100A200031780124002916D005467D20C00001F050
:100A3000B3FE0146C648006801F0AEFE00F0F2FBCE
:100A4000032D08D8002806D10024E0432946224679
:100A500000F01CF87560204670BDC0460000002004
:100A600082B0094841680122114341604168114048
:100A700001910199110702680A4302600068084069
:100A80000090009802B070473C100240002805D446
:100A90000322034693430A4A9A1803E00C220240B9
:100AA000064BD2188007C00E8901C9B28140FF23CE
:100AB00083401068984308431060704714ED00E0CD
:100AC00000E400E0F0B581B00146032460021B4D54
:100AD0002A46143A136883430B43136001277A02B2
:100AE0000020914224D19A4909682A6852051FD5ED
:100AF000BE0206224A4312490090104601F04CFE05
:100B000001460098791A022914D02A6832420FD07F
:100B100001290FD02A6832420AD000290AD02A6857
:100B2000324205D0091D032904D02A683242EAD195
:100B300001B0F0BD204601B0F0BDC04614700040C9
:100B400040420F00F0B583B00D4601460120002958
:100B500061D00291019073480068072738408542B0
:100B600015D970490868B843284308606E4CFFF7F0
:100B700033FF06466B4800683840A84207D0FFF7AD
:100B80002BFF801BA042F5D9032003B0F0BD029BD0
:100B9000186881078F4C0CD5410703D539032268AB
:100BA0000A4322600F21090222688A43996811438F
:100BB0002160C0071AD15B480068384085422CD2BA
:100BC00058490868B84328430860574CFFF704FFAA
:100BD0000646544800683840A8421ED0FFF7FCFE85
:100BE000801BA042F5D9032003B0F0BD596803294A
:100BF0006AD8880001A21258019897460D0C000887
:100C0000BD0C0008A90C0008B50C00082246083AE3
:100C1000126852055CD403B0F0BD029A1078400708
:100C20006C4C05D5380321688143D06808432060A7
:100C300020688006400F1FD0226838210A4066488D
:100C4000082A20D022680A40102A5AD1616803225B
:100C50000A40032A00D0614861684906490F491CCF
:100C600001F09AFD61684904490E48436168490FE3
:100C7000491C01F091FD06E0204608380068800418
:100C8000410F5648C840216889093C220A4027493B
:100C900089581F220A40D0402D4908602448006826
:100CA000FFF7BCFE03B0F0BD2246083A126892017D
:100CB000B1D50DE0A26D9207ADD509E02246083A04
:100CC00012689203A7D503E0606D80070198A2D552
:100CD0002068B84308432060FFF77EFE0646206880
:100CE0003821014002984068C000814200D162E78B
:100CF000FFF772FE801B0C498842F0D9032003B035
:100D0000F0BD20680840202802D10120C003BAE7C6
:100D100020680840182801D00020B4E77D20000298
:100D2000B1E7C04600200240881300009029000867
:100D3000040000200648006826490968890A1C2228
:100D40000A40044989581F220A40D0407047C046D3
:100D500008000020D029000810B51E4C206880062D
:100D6000400F06D0226838210A401B48082A07D1C4
:100D700010BD083C20688004410F1848C84010BDD1
:100D800022680A40102A15D1616803220A40032A0A
:100D900000D0124861684906490F491C01F0FCFC6B
:100DA00061684904490E48436168490F491C01F0D4
:100DB000F3FC10BD20680840202802D10120C003A8
:100DC00010BD20680840182801D0002010BD7D20EB
:100DD000000210BD0810024000127A000024F40046
:100DE000F0B587B004460120002C00D1F0E104905A
:100DF0002078C007F74E05943FD12078800762D451
:100E000005980078000700D590E0059A1078400713
:100E100000D5A2E0D469002C00D1C0E1B06838212F
:100E20000140102900D00EE1012C00D1A2E0F068B1
:100E300003210140059B1A6A914200D09AE070217B
:100E400001405A6A914200D094E07F21090201409A
:100E50009A6A1202914200D08CE01F21490401409D
:100E6000DA6A914200D085E0072149070840196BF2
:100E70008842049800D0ABE191E1B068382202408A
:100E800010215140F368032004469C430B1959423A
:100E90005941082A58D0002956D13168059A53681B
:100EA0000124670422049342039008D005252D04F1
:100EB000AB4200D0F9E0A30419433160316811431B
:100EC0003160059CFAE0B0683821014010204840AC
:100ED000F2680324224002235340C0184242424198
:100EE00001208702002948D0002A46D103943168A6
:100EF000059CE268002A00D1EFE00722D20291436C
:100F000022690A4332600002316801433160FFF711
:100F100063FD05463068384200D0F0E0FFF75CFD25
:100F2000401B0228F6D9039807B0F0BDB0683821FD
:100F3000014018294BD1306E800700D465E7059831
:100F40008069002816D060E730688003059C00D4D3
:100F500053E7606800280DD04FE7B06838210140A2
:100F600020294BD1F06D800700D453E7906800280A
:100F700000D04FE7049807B0F0BD32683A42059BB5
:100F800003D0DA68002A00D122E105467F20000262
:100F900072688243586900021043706000290DD1C5
:100FA0000720C00231688143186908433060306807
:100FB0008004400F9449C1409448016094480068FF
:100FC000FFF72CFD0028284600D001E118E7306E1D
:100FD00005998969002900D19AE00121084330660A
:100FE000FFF7FAFC0546306E800700D50DE7FFF7E6
:100FF000F3FC411B03200229F5D9E9E0012003900D
:101000000107F06B0840029006D1F06B0843F063D3
:10101000F06B08400690069801917E4F3868C00535
:1010200033D403980402386820433860FFF7D4FCB7
:1010300005463868204228D1FFF7CEFC411B03202B
:101040000229F6D9C4E001210A06306803929043D0
:10105000306004914F06FFF7BFFC0546022C09D112
:101060003068384274D0FFF7B7FC411B03200229D7
:10107000F6D9ADE03068384200D18CE0FFF7ACFC27
:10108000411B03200229F5D9A2E0F06D059989687A
:10109000012906D0052900D084E004210843F06529
:1010A000F06D03990843F06585E091433160A00439
:1010B000316881433160002B059C3AD0FFF78CFCEE
:1010C00005463068384200D097E6FFF785FC401BA4
:1010D0006428F6D9039807B0F0BD0002814331605F
:1010E000FFF77AFC05463068384200D188E6FFF702
:1010F00073FC401B0228F6D9039807B0F0BD7F208F
:10110000000271688143606900020843706077E6FD
:10111000012188433066FFF75FFC0546306E80078B
:1011200000D472E6FFF758FC411B03200229F5D9D1
:101130004EE0FFF751FC05463068384200D15CE6CE
:10114000FFF74AFC401B6428F6D9039807B0F0BDAE
:10115000F06833490140059D20353DCD08431043DB
:101160001902014321432943F16030680399084380
:10117000306004980007F1680143F160FFF72CFC30
:101180000446306838420AD1FFF726FC011B0320D1
:101190000229F6D91CE0F06820490140F1600020E6
:1011A00007B0F0BD039A9043F065F06D04229043C0
:1011B000F065002910D0184CFFF70EFC0546F06DC5
:1011C000800717D4FFF708FC411B0320A142F6D982
:1011D00007B0F0BD001002400F4CFFF7FDFB0546C5
:1011E000F06D800706D5FFF7F7FB411B0320A142F6
:1011F000F6D9EDE702980028059A00D00AE6F06BD0
:1012000001998843F06305E60024F40008000020FB
:10121000040000200070004088130000FCFFFEEF77
:101220008C80C11F401E010E01D00120704707496C
:10123000074A5060074803680B4003218907591883
:10124000016000209060072111607047FFFFFF00E0
:1012500010E000E020ED00E0F0B53C22825C012AC5
:1012600001D10220F0BD02463C323F231B02CC6874
:101270009C430F239B028D689D4325434B681D4C67
:101280001C402C430B681C4D1D4025430B691B4C17
:101290001C402C434B692343194C1C400B6B194DCC
:1012A0001D402543CB692B438C692404164D2540F2
:1012B0001D4303684948834204D02C460020107027
:1012C0005C64F0BD114805400E46203651CEC96A17
:1012D00036050F4F37402F4311256D06A84338437D
:1012E00001256D07AC4304430C43002010705C647F
:1012F000F0BDC046FF87F0EFFF8FF0EFFF9FF0EFEC
:10130000FFBFF0EFFFFFF0EF0000FFEFFFFF0FDC8C
:101310000000F0DCB0B5002824D005463C356978E3
:10132000002905D100212970044600F05FF820460D
:101330000221697001680B68284A914202D0284C4A
:10134000A14211D17024A34384681C43254B9942C8
:101350000EDD914212D0244B99420FD0334B99426B
:101360000CD039E00120B0BD1C461E4B9942F0DC88
:101370001B4B994202D02E4B99422DD103231B02C5
:101380009C4303692343C468CC6244688C628469CB
:10139000914205D0144A914202D0244A914201D18F
:1013A000406908630868042202430A60012048611A
:1013B000802293432343BFF34F8F0B602873A870A1
:1013C000E87028716871A871E87128726872A87253
:1013D000E87268700020B0BD2346D4E7002C0140BD
:1013E00000040040FF2B01400048014082B000682B
:1013F000E84988420ED00E49884215D10120C00329
:101400000C490A6802430A60096801400191019889
:1014100002B070470120400406490A6802430A608E
:10142000096801400091009802B0704700440140F3
:101430000020004040100240F0B583B03C23C35C64
:10144000012B02D1022003B0F0BD03463C3302243D
:10145000E241052A00D9ADE07A441279520097445E
:1014600002764259268C0268106A156A0126B54335
:101470001562A0438F68074350680C680294956911
:10148000FA4CA24206D0FC4EB24203D0FB4EB2420E
:1014900000D01CE1166A0424A64316620824A74360
:1014A000F24CCE683E43A24200D013E118E102683C
:1014B000146ABA487330156A0540156257688D681A
:1014C00002950D680195566DE84DAA4206D0EA4D89
:1014D000AA4203D0E94DAA4200D0AAE007404869D9
:1014E00005023D43A6E00268106A01263402156A2F
:1014F000A54315627402A0438C6827020743506815
:101500000C680294D569D94CA24258D03E46A242FA
:1015100065D16AE00268156A01242003166A8643D1
:10152000166250688E6802960E680196D769CF4E93
:10153000B24206D0D04EB24203D0D04EB24200D01A
:10154000AAE0A603B0434E69B6010643A5E00268CF
:10155000106A146A1025AC4314622024A0438C68DE
:101560002701074350680C6802949469BF4DAA4252
:1015700044D03E46AA424DD152E00268156A012489
:101580002005166A8643166250688E6802960E68B9
:101590000196576DB54EB24206D0B74EB24203D057
:1015A000B64EB24200D0D0E0A604B0434E69B602B7
:1015B0000643CBE001200021197003B0F0BD00907C
:1015C000B0020190146A0198844300981462F402F6
:1015D000A743CC682602A54C3E43A24205D0A64CA8
:1015E000A24202D0A54CA24240D103242403A0432E
:1015F0004C698F6927433C01044338E0166A402553
:10160000AE4316628025AF43CD682E01974D3E4311
:10161000AA4205D0984DAA4202D0984DAA4267D15D
:101620000325AD02A8434D698F692F43BD000543D3
:101630005FE03D46104654305560584DED1C2E403D
:10164000019D2E4356654D68956501256D04AC439B
:10165000029D2D0425431562546D082525435565CB
:10166000546D0425AC43546509698AE0044610466C
:101670001C305460494C2540029C2543D5614C6880
:10168000D4631662D46908252543D561D46904253D
:10169000AC43D461096974E0064610461C305660BC
:1016A0003F4E3740019E36023E43D6614E68166477
:1016B0006603B543029E36032E431662E502D669E1
:1016C0002E43D661A402D569A543D56157E03E46B5
:1016D000A24205D0684CA24202D0684CA2421ED160
:1016E00003242402A0434C698F6904433C4317E060
:1016F0000546104618305560294D2C40029D2D029C
:10170000254395614C68946316620124E50296694D
:101710002E439661A4029569A54395612FE0044686
:101720001046183054601D4C2540029C254395619D
:101730004C68546316629469082525439561946941
:101740000425AC43946109691BE0064610465430F9
:101750005660114E3740019E36023E4356654E6834
:10176000D6656605B543029E36052E431662E50230
:10177000566D2E435665A402556DA54355650969FE
:10178000090202680A43026000200021197003B0B8
:10179000F0BDC04600440140FF8FFFFE8CFFFEFFFE
:1017A000FF8CFFFEB0B5002824D005463C35697893
:1017B000002905D100212970044600F063F8204675
:1017C0000221697001680B68284A914202D0284CB6
:1017D000A14211D17024A34384681C43254B994234
:1017E0000EDD914212D0244B99420FD0234B9942E7
:1017F0000CD039E00120B0BD1C461E4B9942F0DCF4
:101800001B4B994202D01E4B99422DD103231B0240
:101810009C4303692343C468CC6244688C62846936
:10182000914205D0144A914202D0144A914201D10A
:10183000406908630868042202430A600120486185
:10184000802293432343BFF34F8F0B602873A8700C
:10185000E87028716871A871E87128726872A872BE
:10186000E87268700020B0BD2346D4E7002C014028
:1018700000040040FF2B01400048014000440140AB
:101880000020004070477047704770477047000065
:1018900001680348814200D070470F210162704700
:1018A00000440040F0B589B00368DF6920250121BC
:1018B0000691CE0232462F323A401968089004460B
:1018C000803405939B68202A0495079710D1084619
:1018D0002840012212071A4080181F4616D0089887
:1018E000416F002900D158E10898884709B0F0BD40
:1018F00030460F3007421F4608D0CF480840069AAE
:101900001207551C3D40281800D091E00394102682
:101910000846304042424241079D284630404442FA
:10192000444114430898C06E401E421E904120431B
:1019300037D001240126B2053A4050425041EA0214
:101940002246059B00D50246002A00D1A6E02806C3
:1019500006D580200840F2051740C01900D0BDE12F
:1019600040230A461A40504250416A06224600D59A
:101970000246002A00D14AE1B2070A4050425041D3
:101980002A02224600D50246002A00D1B1E10029F0
:1019900000DAB3E1E80100D5B4E1002C00D0FCE0AE
:1019A000B4E1089C5C34059806628068400600D566
:1019B0007BE0618822886088002800D1EDE08A42BF
:1019C00000D1EAE0EFF310800790012383F3108841
:1019D000092045010898374606683468AC433460EE
:1019E000079C84F31088EFF31084079483F3108826
:1019F0000568AE68C84C3440AC60079C84F310881E
:101A0000049C039DEC6000244467C466EFF31084DB
:101A100083F3108803681D68BD431D6084F310883C
:101A200002230367511A89B2FFF72DFF09B0F0BDF9
:101A3000009203940798069B1840424242411802C4
:101A400001910840444244411443059B05D10120C3
:101A50001862039C22690243226101203C460290E5
:101A600004406042604107998A07069A00D5024601
:101A7000002A06D1022018620398016904220A4351
:101A800002616042604107994A07069A5ED4002AC3
:101A9000039C5FD00798000765D46EE0300518629C
:101AA0000898FFF7F3FE09B0F0BD2288039800689C
:101AB0000068436899B2002900D19CE0914200D3AC
:101AC00099E063800068800635D4EFF3108201212D
:101AD00081F31088924B20330898056837462E68AA
:101AE0001E402E6082F31088EFF3108281F310887D
:101AF00003689D688D439D6082F31088EFF3108228
:101B000081F3108803689D684026B5439D6082F389
:101B10001088039B049ADA600022C266EFF31082F9
:101B200081F3108800680168B943016082F310886E
:101B30001868FEF7FFFD0221089801672188628876
:101B4000891A89B2FFF79FFE09B0F0BD0246002A4C
:101B5000039C9FD104201862206902220243226163
:101B60000798000709D50198049A1040054304D04E
:101B700008201862226902432261029882060199B4
:101B80000A4050425041079A324208D10698002834
:101B9000049A09D0206900280DD109B0F0BD069043
:101BA00006980028049AF5D11E622069104320612E
:101BB00020690028F1D0079810400DD011400098FE
:101BC00007400F4308D00898416F002904D0089CB3
:101BD000204688472368039C206928220240986891
:101BE00040210840801829D10898FFF751FE0020B5
:101BF000206109B0F0BD8A42CFD100688006CCD503
:101C0000022208980267FFF73EFE09B0F0BDEFF32D
:101C1000108186F310880898026814689C43146049
:101C200081F31088002181670399049A8A6000F08B
:101C3000DFF809B0F0BDC04620010004EFF31080CA
:101C4000029E86F3108809225201089B1C682568B1
:101C50009543256080F31088EFF3108086F3108899
:101C60001A6894682C4D2540956080F31088D86ED2
:101C700001280CD1EFF31082029880F310880898A5
:101C8000006803681024A343036082F31088039C58
:101C90000498E0600020089AD06650671068806859
:101CA000400621D5EFF31082029880F3108808983F
:101CB000006883688B43836082F310882168002961
:101CC00012D0164888630846FEF76CFD002800D144
:101CD00063E72068816B884709B0F0BD0898816F81
:101CE000002900D000E658E70898FFF7D1FD09B0B9
:101CF000F0BD0898FFF7C9FD09B0F0BD0026E80166
:101D000000D44AE63446002C00D046E70898FFF796
:101D1000BBFD09B0F0BDC046FEFFFFEFD9230008B0
:101D2000DFFEFFFFB0B500281ED00446054684350F
:101D30006868002804D100202870204600F02AF8A6
:101D400024206860206801680125A9430160A06A19
:101D5000002802D0204600F06EFA204600F042FB38
:101D6000002803D02846B0BD0120B0BD0920C00224
:101D700021684A6882434A6088682A2290438860C2
:101D80000868012202430A60204600F0BDFA0546B9
:101D90002846B0BD10B586B000210591049103918D
:101DA000029101910068AA4A904201D006B010BD8C
:101DB0009848836801220592540423438360836812
:101DC00023400093009B03681343036000681040A6
:101DD000009004910391022002900C2001900520B4
:101DE0000007009901A9FEF717FD06B010BDC04617
:101DF0007047FEE7F0B587B000240694059404947C
:101E0000039402948348016802221143016001682F
:101E1000114001910199016801273943016000686F
:101E2000384001900198D848C02529462246FEF73F
:101E3000CBFD052006070C4930462246FEF7C4FDBF
:101E4000059404940397029502ADCF482946FEF706
:101E5000E3FC059404940397034802903046294616
:101E6000FEF7DAFC07B0F0BD8209000070B58EB055
:101E70002D48002484619F490F229C4E06604260D9
:101E80008460C16004610794069405940494FFF78C
:101E900041FA002801D0FEF749FC2348FFF782FCF5
:101EA000002801D0FEF742FC05940394B748029045
:101EB000602001901C4D01A928462246FFF7BCFA7C
:101EC000002801D0FEF732FC0D940C940B940A9478
:101ED00009942868884988420DD0B04221D14D48E4
:101EE00001680122114301600068104008900898C1
:101EF000042110200AE047480168012211430160D3
:101F00000068104008900898052140200D9102219A
:101F10000C910B910A9109900520000709A9FEF781
:101F20007BFC0EB070BDC046A4000020F0B59BB095
:101F300001A83421FEF7C5F9354800246D490F2268
:101F40006D4E066042608460C160046144618461DA
:101F5000FFF7E0F9002801D0FEF7E8FB2C48FFF777
:101F600021FC002801D0FEF7E1FB109487480F9078
:101F700060200E90119412941394149424480EA986
:101F80002246FFF759FA002801D0FEF7CFFB05944F
:101F900004940394029401940D9407940127780308
:101FA00006901B4D01A92846FFF756F9002801D0DD
:101FB000FEF7BCFB1A941994189417941694286889
:101FC000B0420DD0494988421FD1124801683943B7
:101FD000016000683840159015980421102009E030
:101FE0000C48016839430160006838401590159825
:101FF000052140201A9102211991189117911690EC
:102000000520000716A9FEF707FC1BB0F0BDC0466F
:10201000F00000203410024010B50C4800210C22C2
:102020000B4B016241628162E124640218C00160CD
:1020300041608160C260016141610838FFF772FE52
:10204000002801D0FEF772FB10BDC0463C01002005
:1020500000440040F0B583B04A480027478007801D
:10206000494D4021012428462246FEF7ADFC80213F
:1020700028462246FEF7A8FC00F096F86B48066852
:102080001A4D2F601A49304600F086FB18498E42DF
:10209000394600D3411EA9621648E8623B4868638E
:1020A00068200190A8612C626C61812002902860F8
:1020B00000F07AF85D4806680F4D2F6030460C49F5
:1020C00000F06AFB0A498E4200D3471EAF620948FE
:1020D000E8622E4868630198A8612C62E003686496
:1020E0006C610298286003B0F0BDC046002000403B
:1020F00040420F001F4E000000440140F0B581B087
:102100001F4A91422FDD7D23DB00994230DA904255
:1021100031DD984200DB184683B21A4A1488A34284
:1021200005D153888CB29C4201D101B0F0BD5180E1
:102130001080154C40220125064620460F461146C8
:102140002A46FEF741FC802120462A46FEF73CFC49
:102150000E48311889B20E4A1160381880B20D4904
:10216000086001B0F0BD11467D23DB009942CEDB53
:1021700019469042CDDC10469842CCDACCE7C046F6
:1021800018FCFFFF7000002000040050DC05000078
:102190003420004034440140FEE77047704780B56A
:1021A000FEF71EFC80BD0000B0B51E4D2C1F206840
:1021B0008006400F411E032922D81B487944097923
:1021C00049008F442301171A296803220A40032A71
:1021D00000D0DA4829684906490F491C00F0DCFAAA
:1021E00029684904490E48432968490F491C00F0F1
:1021F000D3FA0BE07D20000208E00120C00305E0D7
:102200000C3D28688004410FCC48C840074908604D
:10221000226892093C231340054AD258D0400860F6
:10222000B0BDC0460C10024000127A000800002029
:10223000902900087047B0B5816A0A070CD4CA0714
:1022400014D18A071CD44A0724D4CA062CD48A067F
:1022500034D44A063CD44CE00122D20303685C68C3
:102260009443826B22435A60CA07EAD00122520487
:1022700003685C689443C26A22435A608A07E2D5C5
:102280000122120403685C689443026B22435A6083
:102290004A07DAD50122920403685C689443426BD2
:1022A00022435A60CA06D2D50122120303689C68F1
:1022B0009443C26B22439A608A06CAD50122520314
:1022C00003689C689443026C22439A604A0610D5C6
:1022D00001221305026854689C43456C2C435460EA
:1022E0009D4206D103235B0554689C43836C2343C2
:1022F0005360090607D50121C904026853688B435E
:10230000C06C18435060B0BDF0B583B004460646BB
:1023100084360025F560FEF75FFB03462068016800
:10232000090721D502952B48009001256905002257
:1023300020461F4600F00AF9002812D0EFF3108063
:1023400085F3108821680A6880239A430A6080F325
:102350001088032020228821029D6250357003B02E
:10236000F0BD20683B46029D0068400726D519480D
:1023700000900127B9050022204600F0E7F8002868
:102380001CD0EFF3108087F31088092149012268DF
:1023900013688B43136080F31088EFF3108087F38A
:1023A000108821688A68BA438A6080F31088032005
:1023B00020228C216250357003B0F0BD2020706067
:1023C000B060E56670212A4628466250357003B039
:1023D000F0BDC046FFFFFF0180B5806AFFF758FAE5
:1023E00080BD0000F0B581B00446006801684A4A2B
:1023F0000A40A16823690B43616919431143E269EB
:10240000114301600321090343688B43E1681943C9
:102410004160A169236A0B438168404D0D401D4313
:102420008560C36A0F218B43616A0B43C3623C4BD7
:10243000984209D03B4B984208D13B48006880073E
:10244000000F3AA31F5802E0002700E0102726469D
:1024500068360125EB0339489A420FD1082F52D82C
:102460007F443F797F00BF44044E264E194E4E4EA6
:102470002500FEF75FFC002814D143E0082F42D866
:102480007F443F797F00BF44043E2C3E0F3E3E3EDA
:102490002B00FEF74FFC00280AD133E0FEF75CFC6E
:1024A00000282FD0616A06E0FEF756FC002829D0EC
:1024B000616A16E018464900214A515A00F06CF949
:1024C000400061684A08101800F066F90246103AA8
:1024D0001C498A4217D201400007400F08430FE011
:1024E00018464900164A515A00F056F961684A08E0
:1024F000101800F051F901461039124A914202D2E7
:102500002168C86000251048306000206067A0671F
:10251000284601B0F0BDC046F369FFCFFFF4FF11BC
:102520000044004000380140541002400000000008
:102530000400000002000000080000000024F40075
:10254000F0290008F0FF000001000100F0B585B09F
:102550001F4615460E460368D9693140891B4A4219
:102560004A410021954222D10A9C002C22D003919D
:10257000611C24D1D9693140891B4A424A419542A4
:1025800031D1D9693140891B4A424A4195422AD109
:10259000D9693140891B4A424A41954223D1D969C0
:1025A0003140891B4A424A419542E3D01BE008462C
:1025B00005B0F0BDFEF710FA032005B0F0BD402EC7
:1025C000049001D0802E14D1FEF706FAC01BA04261
:1025D0000CD8049800680168C0693040801B4142F3
:1025E00041418D42F0D0039805B0F0BD032005B005
:1025F000F0BD8430019001200090C002029006E0FE
:10260000C8693040801B414241418D42EBD1FEF709
:10261000E3F9C11B0320A1423FD8049909680A6865
:102620005207EDD5CA69120739D4CA69029B1A420A
:10263000E6D0029A0A62EFF31082012181F310883A
:1026400009235B01049C246825689D43256082F36F
:102650001088EFF3108281F31088049B1B689C683C
:102660002A4D25409D60049B82F31088DA6E012A72
:102670000BD1EFF3108281F3108819680B681024D6
:10268000A3430B60049B82F310882021019CA1606E
:102690000022DA665A672270E16005B0F0BD0825B5
:1026A0000D62EFF31081009880F310880922520127
:1026B000049B1B681C6894431C6081F31088EFF333
:1026C000108180F31088049A126893680F4C1C40A4
:1026D000049B946081F31088D96E01290CD1EFF32B
:1026E0001081012282F310881A6813681024A34312
:1026F0001360049B81F310882021019A91600021CE
:10270000D96659671170D56005B0F0BDFEFFFFEFC7
:1027100080B50248FFF7C6F880BDC0463C010020E6
:1027200092B0FEF767F905AD281D3021FDF7C9FD10
:1027300001267002FEF7C6F900240C9440200A908E
:10274000099430020890022005902846FEF748FBC5
:10275000002803D0EFF3108072B6FEE704940394D0
:1027600002940720019001A82146FEF7EBF900280A
:1027700003D0EFF3108072B6FEE7FFF73BFBFFF7E5
:1027800075FBFFF7D3FBFFF747FCFFF763FCFDF793
:1027900011FEFDF74FFEFCE743088B421AD30022DF
:1027A00003098B4279D3030A8B425ED3030B8B421E
:1027B00042D3030C8B4227D30902FF2212BA030C27
:1027C0008B4202D31212090203D0030B8B4233D384
:1027D0001AE0D3E0411A8041401C704703460B4386
:1027E00071D443088B42F5D3002203098B4254D3A2
:1027F000030A8B4239D3030B8B421DD3030C8B424C
:1028000002D394466EE0090AC30B8B4201D3CB037B
:10281000C01A5241830B8B4201D38B03C01A524121
:10282000430B8B4201D34B03C01A5241030B8B4223
:1028300001D30B03C01A5241C30A8B4201D3CB020E
:10284000C01A5241830A8B4201D38B02C01A5241F3
:10285000430A8B4201D34B02C01A5241030A8B42F6
:1028600001D30B02C01A5241CDD2C3098B4201D30E
:10287000CB01C01A524183098B4201D38B01C01A8C
:10288000524143098B4201D34B01C01A5241030903
:102890008B4201D30B01C01A5241C3088B4201D3B2
:1028A000CB00C01A524183088B4201D38B00C01A5F
:1028B000524143088B4201D34B00C01A5241411A86
:1028C000524110007047CA0F00D04942031000D394
:1028D0004042534000229C4603098B422DD3030AF9
:1028E0008B4212D38901FC2212BA030A8B420CD309
:1028F000890192118B4208D3890192118B4204D332
:10290000890137D0921100E08909C3098B4201D3B4
:10291000CB01C01A524183098B4201D38B01C01AEB
:10292000524143098B4201D34B01C01A5241030962
:102930008B4201D30B01C01A5241C3088B4201D311
:10294000CB00C01A524183088B4201D38B00C01ABE
:102950005241D9D243088B4201D34B00C01A524195
:10296000411A00D201465241104663465B1000D323
:102970004042704763465B1000D3404201B50021DE
:10298000004201D0C9430846C046C04602BD00000F
:102990000000000000000000000000000000000037
:1029A0000000000000000000000000000000000027
:1029B000010000000200000003000000040000000D
:1029C00006000000070000000800000009000000E9
:1029D00000000000000000000000000000000000F7
:1029E00001000000020000000300000004000000DD
:1029F000010002000400060008000A000C0010009C
:102A00002000400080000001282A0008000000206B
:102A1000100000001C010008382A000810000020E7
:102A2000C80700003C01000801000000040000008D
:082A30000024F4000000000086
:04000005080000C12E
:00000001FF
