:020000040800F2
:100000001007002081010008751500081D13000865
:1000100000000000000000000000000000000000E0
:10002000000000000000000000000000791500083A
:100030000000000000000000771500087B15000894
:1000400093010008000000009301000893010008DC
:100050009301000893010008930100089301000830
:1000600000000000930100089301000893010008BC
:1000700093010008930100089301000800000000AC
:100080009301000800000000000000009301000838
:10009000000000009301000893010008930100088C
:1000A00093010008930100089301000893010008E0
:1000B00093010008000000000000000000000000A4
:1000C00000F002F800F04CF812A030C808382418EC
:1000D0002D18AC4201D100F043F80FCCA246AB463C
:1000E0000CA730CF2D1B083F3F197C427F1E544484
:1000F0002D090426F441641EAC4201D300F030F80F
:100100000126334200D0FB1A3343984754465D46DC
:10011000DFE700005817000078170000103A02D3FC
:1001200078C878C1FAD8520701D330C830C101D598
:1001300004680C6070470000704700000023002432
:1001400000250026103A01D378C1FBD8520700D30E
:1001500030C100D50B6070471FB51FBD10B510BD75
:1001600000F04DF81146FFF7F7FF01F00BFA00F031
:1001700065F803B4FFF7F2FF03BC00F06BF8000072
:100180000748804707480047FEE7FEE7FEE7FEE72F
:10019000FEE7FEE704480549054A064B70470000A4
:1001A00083150008C100000810010020100700207E
:1001B000100300201003002001E004C0091F0429DF
:1001C000FBD28B0701D50280801CC90700D00270CA
:1001D000704700290BD0C30702D00270401C491E93
:1001E000022904D3830702D50280801C891EE3E71D
:1001F0000022EEE70022DFE7704770477047754640
:1002000000F024F8AE46050069465346C008C00019
:10021000854618B020B5FFF7BDFF60BCB646002686
:100220000027C0C5C0C5C0C5C0C5C0C5C0C5C0C504
:10023000C0C5403D490849008D46704710B5044689
:10024000C046C0462046FFF794FF10BD00487047E7
:100250001000002001491820ABBEFEE72600020076
:100260007047EFF3108072B6FEE70000B0B50446A9
:1002700000F0E4F80546601C02D09148007824188C
:1002800000F0DCF8401BA042FAD3B0BDF0B58CB052
:100290000A900B910968002900D1C2E062480A9ACD
:1002A000824201D0052000E0032000900A9820300F
:1002B0000190002308931D46099310E00A43326021
:1002C0005B1C0B9801680846D840099A08320992CD
:1002D000089A121D0892AD1C002800D1A1E001204F
:1002E00006469E403140EBD00793039004910A9A52
:1002F00003242046A840C1432B460B984568284656
:100300002040471E012F0691029505930FD894684F
:100310000C400B99CF689F4027439760EC06E40F91
:10032000079B9C405768B7432743576005E0032865
:10033000079B02D12046029D1EE00A9FFC68069999
:100340000C400B9A966805998E402643FE60022861
:10035000029D11D11C20089908400F228240DC0820
:10036000A40001990E5996430B9F3A69824032438B
:100370000A517D6803202840059B98400A9A14681A
:1003800006990C4004431460A8031D46079B800F88
:100390000499039F94D003201A468243234880186F
:1003A000026E052424070A9EA6420AD0214C0A9E0A
:1003B000A64207D0204C0A9EA642009F02D10227E7
:1003C00000E000271824099E34400F26A640B243BF
:1003D0006030A74017430760144802680B984068D4
:1003E000C40201D50A4300E08A43114E0F4C22603B
:1003F0006268840201D50A4300E08A430B4C6260C4
:100400007268840305D50A4372603268C00306D55A
:1004100054E78A4372603268C00300D54EE78A43CE
:100420004DE70CB0F0BDC046000C00500018024073
:100430008018024000040050000800500548006881
:100440007047C0461E48007802490A6810180860C4
:100450007047C0460801002010B501242002CA4997
:100460000A6802430A60032000F00AF8002801D05D
:10047000204610BD00F026F80024204610BDC046DE
:1004800070B50F4E31780124002916D005467D2025
:10049000C00001F0CFF80146C148006801F0CAF879
:1004A00000F0A4FB032D08D8002806D10024E04367
:1004B0002946224600F01CF87560204670BDC046F3
:1004C0000000002082B009484168012211434160C8
:1004D0004168114001910199110702680A430260C5
:1004E000006808400090009802B070473C1002403D
:1004F000002805D40322034693430A4A9A1803E0CE
:100500000C220240064BD2188007C00E8901C9B2E6
:100510008140FF2383401068984308431060704770
:1005200014ED00E000E400E0F0B581B001460324E2
:1005300060021B4D2A46143A136883430B43136031
:1005400001277A020020914224D1954909682A683E
:1005500052051FD5BE0206224A431249009010469A
:1005600001F068F801460098791A022914D02A6827
:1005700032420FD001290FD02A6832420AD0002916
:100580000AD02A68324205D0091D032904D02A68FE
:100590003242EAD101B0F0BD204601B0F0BDC04604
:1005A0001470004040420F00F0B583B00D46014684
:1005B0000120002961D0029101907348006807274B
:1005C0003840854215D970490868B8432843086007
:1005D0006E4CFFF733FF06466B4800683840A84270
:1005E00007D0FFF72BFF801BA042F5D9032003B0F3
:1005F000F0BD029B18688107654C0CD5410703D5F7
:10060000390322680A4322600F21090222688A43C3
:10061000996811432160C0071AD15B4800683840CF
:1006200085422CD258490868B84328430860574C83
:10063000FFF704FF0646544800683840A8421ED021
:10064000FFF7FCFE801BA042F5D9032003B0F0BDEC
:10065000596803296AD8880001A212580198974660
:1006600071060008210700080D0700081907000897
:100670002246083A126852055CD403B0F0BD029AD3
:1006800010784007424C05D5380321688143D06873
:100690000843206020688006400F1FD02268382160
:1006A0000A403C48082A20D022680A40102A5AD121
:1006B000616803220A40032A00D03748616849066E
:1006C000490F491C00F0B6FF61684904490E4843D0
:1006D0006168490F491C00F0ADFF06E0204608386C
:1006E00000688004410F2C48C840216889093C22D9
:1006F0000A402A4989581F220A40D04028490860E8
:1007000028480068FFF7BCFE03B0F0BD2246083A57
:1007100012689201B1D50DE0A26D9207ADD509E046
:100720002246083A12689203A7D503E0606D80075D
:100730000198A2D52068B84308432060FFF77EFEE9
:10074000064620683821014002984068C000814276
:1007500000D162E7FFF772FE801B0C498842F0D996
:10076000032003B0F0BD20680840202802D10120FA
:10077000C003BAE720680840182801D00020B4E779
:100780007D200002B1E7C04600200240881300002F
:100790000810024000127A000024F4002C1800080F
:1007A0000800002004000020F0B587B004460120B6
:1007B000002C00D1F0E104902078C007F74E05949A
:1007C0003FD12078800762D405980078000700D5D3
:1007D00090E0059A1078400700D5A2E0D469002C7B
:1007E00000D1C0E1B06838210140102900D00EE1ED
:1007F000012C00D1A2E0F06803210140059B1A6A98
:10080000914200D09AE0702101405A6A914200D092
:1008100094E07F21090201409A6A1202914200D0BD
:100820008CE01F2149040140DA6A914200D085E042
:10083000072149070840196B8842049800D0ABE1B2
:1008400091E1B0683822024010215140F368032042
:1008500004469C430B1959425941082A58D0002993
:1008600056D13168059A53680124670422049342E3
:10087000039008D005252D04AB4200D0F9E0A30475
:1008800019433160316811433160059CFAE0B0686A
:100890003821014010204840F268032422400223FE
:1008A0005340C0184242424101208702002948D0EB
:1008B000002A46D103943168059CE268002A00D1E1
:1008C000EFE00722D202914322690A43326000021C
:1008D000316801433160FFF7B1FD054630683842A9
:1008E00000D0F0E0FFF7AAFD401B0228F6D90398DC
:1008F00007B0F0BDB0683821014018294BD1306EE7
:10090000800700D465E705988069002816D060E765
:1009100030688003059C00D453E7606800280DD040
:100920004FE7B0683821014020294BD1F06D800796
:1009300000D453E79068002800D04FE7049807B030
:10094000F0BD32683A42059B03D0DA68002A00D134
:1009500022E105467F200002726882435869000246
:100960001043706000290DD10720C0023168814317
:1009700018690843306030688004400F9449C140D2
:100980009448016094480068FFF77AFD00282846E3
:1009900000D001E118E7306E05998969002900D17E
:1009A0009AE0012108433066FFF748FD0546306EA6
:1009B000800700D50DE7FFF741FD411B0320022909
:1009C000F5D9E9E0012003900107F06B084002909F
:1009D00006D1F06B0843F063F06B08400690069870
:1009E00001917E4F3868C00533D4039804023868FB
:1009F00020433860FFF722FD05463868204228D1A1
:100A0000FFF71CFD411B03200229F6D9C4E0012198
:100A10000A06306803929043306004914F06FFF756
:100A20000DFD0546022C09D13068384274D0FFF71D
:100A300005FD411B03200229F6D9ADE0306838429C
:100A400000D18CE0FFF7FAFC411B03200229F5D905
:100A5000A2E0F06D05998968012906D0052900D02A
:100A600084E004210843F065F06D03990843F065C4
:100A700085E091433160A004316881433160002BEF
:100A8000059C3AD0FFF7DAFC05463068384200D0C2
:100A900097E6FFF7D3FC401B6428F6D9039807B00C
:100AA000F0BD000281433160FFF7C8FC05463068A5
:100AB000384200D188E6FFF7C1FC401B0228F6D976
:100AC000039807B0F0BD7F20000271688143606920
:100AD00000020843706077E6012188433066FFF723
:100AE000ADFC0546306E800700D472E6FFF7A6FC29
:100AF000411B03200229F5D94EE0FFF79FFC054674
:100B00003068384200D15CE6FFF798FC401B64284F
:100B1000F6D9039807B0F0BDF06833490140059D50
:100B200020353DCD08431043190201432143294399
:100B3000F160306803990843306004980007F16859
:100B40000143F160FFF77AFC0446306838420AD16D
:100B5000FFF774FC011B03200229F6D91CE0F068A2
:100B600020490140F160002007B0F0BD039A904396
:100B7000F065F06D04229043F065002910D0184C08
:100B8000FFF75CFC0546F06D800717D4FFF756FCB5
:100B9000411B0320A142F6D907B0F0BD001002406E
:100BA0000F4CFFF74BFC0546F06D800706D5FFF7AD
:100BB00045FC411B0320A142F6D9EDE7029800282D
:100BC000059A00D00AE6F06B01998843F06305E6C8
:100BD0000024F40008000020040000200070004001
:100BE00088130000FCFFFEEF8C80C11F401E010E29
:100BF00001D0012070470749074A50600748036841
:100C00000B400321890759180160002090600721DB
:100C100011607047FFFFFF0010E000E020ED00E0F2
:100C2000F0B53C22825C012A01D10220F0BD0246CF
:100C30003C323F231B02CC689C430F239B028D68F0
:100C40009D4325434B681D4C1C402C430B681C4D99
:100C50001D4025430B691B4C1C402C434B6923430F
:100C6000194C1C400B6B194D1D402543CB692B4380
:100C70008C692404164D25401D430368494883426E
:100C800004D02C46002010705C64F0BD1148054073
:100C90000E46203651CEC96A36050F4F37402F43D6
:100CA00011256D06A843384301256D07AC43044365
:100CB0000C43002010705C64F0BDC046FF87F0EF6D
:100CC000FF8FF0EFFF9FF0EFFFBFF0EFFFFFF0EFC0
:100CD0000000FFEFFFFF0FDC0000F0DCB0B50028E4
:100CE00024D005463C356978002905D100212970BA
:100CF000044600F05FF820460221697001680B6825
:100D0000284A914202D0284CA14211D17024A34319
:100D100084681C43254B99420EDD914212D0244B2E
:100D200099420FD0334B99420CD039E00120B0BD2D
:100D30001C461E4B9942F0DC1B4B994202D02E4BB5
:100D400099422DD103231B029C4303692343C468AA
:100D5000CC6244688C628469914205D0144A914205
:100D600002D0244A914201D14069086308680422F4
:100D700002430A6001204861802293432343BFF36A
:100D80004F8F0B602873A870E87028716871A87184
:100D9000E87128726872A872E87268700020B0BDAD
:100DA0002346D4E7002C014000040040FF2B014003
:100DB0000048014082B00068E84988420ED00E49E0
:100DC000884215D10120C0030C490A6802430A6019
:100DD000096801400191019802B070470120400468
:100DE00006490A6802430A600968014000910098B8
:100DF00002B0704700440140002000404010024013
:100E0000F0B583B03C23C35C012B02D1022003B0B8
:100E1000F0BD03463C330224E241052A00D9ADE08F
:100E20007A4412795200974402764259268C02681D
:100E3000106A156A0126B5431562A0438F680743FF
:100E400050680C6802949569FA4CA24206D0FB4E99
:100E5000B24203D0FA4EB24200D01CE1166A04241A
:100E6000A64316620824A743F24CCE683E43A24232
:100E700000D013E118E10268146ABA487330156AA9
:100E80000540156257688D6802950D680195566D8D
:100E9000E84DAA4206D0E94DAA4203D0E84DAA4245
:100EA00000D0AAE00740486905023D43A6E0026879
:100EB000106A01263402156AA54315627402A04324
:100EC0008C682702074350680C680294D569D94C96
:100ED000A24258D03E46A24265D16AE00268156A35
:100EE00001242003166A8643166250688E680296B3
:100EF0000E680196D769CF4EB24206D0CF4EB242AD
:100F000003D0CF4EB24200D0AAE0A603B0434E6950
:100F1000B6010643A5E00268106A146A1025AC43C6
:100F200014622024A0438C682701074350680C6892
:100F300002949469F74DAA4244D03E46AA424DD14C
:100F400052E00268156A01242005166A864316627B
:100F500050688E6802960E680196576DED4EB2424B
:100F600006D0E94EB24203D0E84EB24200D0D0E003
:100F7000A604B0434E69B6020643CBE0012000212F
:100F8000197003B0F0BD0090B0020190146A01988E
:100F9000844300981462F402A743CC682602DD4C17
:100FA0003E43A24205D0D84CA24202D0D74CA24226
:100FB00040D103242403A0434C698F6927433C019B
:100FC000044338E0166A4025AE4316628025AF43DD
:100FD000CD682E01CF4D3E43AA4205D0CA4DAA424C
:100FE00002D0CA4DAA4267D10325AD02A8434D697C
:100FF0008F692F43BD0005435FE03D4610465430E6
:101000005560584DED1C2E40019D2E4356654D6890
:10101000956501256D04AC43029D2D0425431562A1
:10102000546D082525435565546D0425AC4354651E
:1010300009698AE0044610461C305460494C25403A
:10104000029C2543D5614C68D4631662D469082597
:101050002543D561D4690425AC43D461096974E0A2
:10106000064610461C3056603F4E3740019E360201
:101070003E43D6614E6816646603B543029E36034E
:101080002E431662E502D6692E43D661A402D569C5
:10109000A543D56157E03E46A24205D09A4CA242F4
:1010A00002D0D44CA2421ED103242402A0434C6996
:1010B0008F6904433C4317E00546104618305560DD
:1010C000294D2C40029D2D02254395614C68946367
:1010D00016620124E50296692E439661A402956981
:1010E000A54395612FE004461046183054601D4C0E
:1010F0002540029C254395614C68546316629469AF
:1011000008252543956194690425AC4394610969D8
:101110001BE00646104654305660114E3740019E83
:1011200036023E4356654E68D6656605B543029E57
:1011300036052E431662E502566D2E435665A4020F
:10114000556DA54355650969090202680A430260A5
:1011500000200021197003B0F0BDC04600440140DA
:10116000FF8FFFFE8CFFFEFFFF8CFFFEB0B5002857
:1011700024D005463C356978002905D10021297025
:10118000044600F05FF820460221697001680B6890
:10119000604A914202D05E4CA14211D17024A34317
:1011A00084681C43244B99420EDD914212D0564B69
:1011B00099420FD0CA4B99420CD039E00120B0BD02
:1011C0001C461D4B9942F0DC514B994202D0C54B55
:1011D00099422DD103231B029C4303692343C46816
:1011E000CC6244688C628469914205D0464A91423F
:1011F00002D0BB4A914201D14069086308680422C9
:1012000002430A6001204861802293432343BFF3D5
:101210004F8F0B602873A870E87028716871A871EF
:10122000E87128726872A872E87268700020B0BD18
:101230002346D4E7002C0140FF2B01400048014029
:101240000044014070470000B0B502463E3200291C
:1012500009D00C1F0223DC41042C0AD34325455D31
:10126000012D0BD014E01378012B11D10223137040
:1012700017E025463F35455D012D09D1032C0FD8D8
:101280007C4424796400A74401090507537008E0F1
:101290000120B0BDD37004E0137102E0937000E050
:1012A00053711F221140012213468B400168086AC6
:1012B00098430862086A184308621248814206DCB3
:1012C0001348814210D01348814206D015E00E48E1
:1012D000814202D0824881420FD1D0034B6C03433C
:1012E0004B640C48814208D188680B4B03400020B6
:1012F000062B06D01404A34203D0086810430860EC
:101300000020B0BDFF4301400048014000440140BF
:1013100000040040002C014007000100FEE700002F
:1013200081B07148016801221143016000681040DA
:101330000090009801B0704770B58EB08B480024C3
:10134000846166490F22674E066042608460C16016
:1013500004610794069405940494FFF7BFFC0028E9
:1013600001D0FEF77EFF8148FFF700FF002801D083
:10137000FEF777FF05940394AD480290602001903A
:101380007A4D01A928462246FFF73AFD002801D0F0
:10139000FEF767FF0D940C940B940A940994286847
:1013A0004F4988420DD0B04221D14F4801680122F7
:1013B0001143016000681040089008980421102033
:1013C0000AE04948016801221143016000681040A9
:1013D00008900898052140200D910C940B9402214F
:1013E0000A9109900520000709A9FEF74FFF0EB0EA
:1013F00070BDC04600440140F0B59BB001A8342147
:10140000FEF7F8FE5A48002434490F22344E066095
:1014100042608460C160046144618461FFF75EFCE6
:10142000002801D0FEF71DFF5148FFF79FFE00285E
:1014300001D0FEF716FF10947D480F9060200E90AB
:10144000119412941394149449480EA92246FFF75C
:10145000D7FC002801D0FEF704FF05940494039400
:10146000029401940D940794012778030690404D4F
:1014700001A92846FFF7D4FB002801D0FEF7F1FEB2
:101480001A9419941894179416942868B0420DD0A1
:10149000144988421FD1144801683943016000682B
:1014A0003840159015980421102009E00E48016875
:1014B0003943016000683840159015980521402097
:1014C0001A9119941894022117911690052000077B
:1014D00016A9FEF7DBFE1BB0F0BDC0461F4E000094
:1014E00000440140002000403410024070B51F4C01
:1014F000002520462946FFF7A7FE1D4E3046294607
:10150000FFF7A2FE20684A4941633068416370BD1D
:10151000B0B5114A904200DC10467D23DB009842B2
:1015200000DB184684B2E40B001944084048241834
:10153000A4B20E4D2D686C63914200DC11469942B5
:1015400000DB19468AB2D20B89184908081880B204
:10155000074909684863B0BD18FCFFFF03480068ED
:1015600033494163024800684163704770000020BE
:10157000BC000020FEE77047704780B5FEF762FFB1
:1015800080BD704792B0FEF767FF05AD281D302182
:10159000FEF730FE01267002FEF7C6FF00240C9411
:1015A00040200A90099430020890022005902846B5
:1015B000FFF7FAF8002803D0EFF3108072B6FEE7C9
:1015C0000494039402940720019001A82146FEF799
:1015D000EBFF002803D0EFF3108072B6FEE7FFF7B1
:1015E0009FFEFFF7A9FEFFF707FFFFF77FFF4B20E6
:1015F000C4007D2005010D4E0D4FFFF7AFFF3846AB
:10160000FEF734FE20462146FFF782FF2846FEF70C
:101610002DFEFFF7A3FF3846FEF728FE3046314681
:10162000FFF776FF2846FEF721FEE6E7A8FDFFFF5D
:10163000DC05000043088B421AD3002203098B42C9
:1016400079D3030A8B425ED3030B8B4242D3030C44
:101650008B4227D30902FF2212BA030C8B4202D31A
:101660001212090203D0030B8B4233D31AE0D3E0EA
:10167000411A8041401C704703460B4371D4430814
:101680008B42F5D3002203098B4254D3030A8B42C9
:1016900039D3030B8B421DD3030C8B4202D39446E8
:1016A0006EE0090AC30B8B4201D3CB03C01A52412F
:1016B000830B8B4201D38B03C01A5241430B8B42E5
:1016C00001D34B03C01A5241030B8B4201D30B03CE
:1016D000C01A5241C30A8B4201D3CB02C01A5241F5
:1016E000830A8B4201D38B02C01A5241430A8B42B8
:1016F00001D34B02C01A5241030A8B4201D30B02A1
:10170000C01A5241CDD2C3098B4201D3CB01C01ABA
:10171000524183098B4201D38B01C01A52414309C4
:101720008B4201D34B01C01A524103098B4201D3B2
:101730000B01C01A5241C3088B4201D3CB00C01A1F
:10174000524183088B4201D38B00C01A5241430897
:101750008B4201D34B00C01A5241411A5241100032
:101760007047CA0F00D04942031000D34042534093
:1017700000229C4603098B422DD3030A8B4212D3CD
:101780008901FC2212BA030A8B420CD389019211FF
:101790008B4208D3890192118B4204D3890137D03F
:1017A000921100E08909C3098B4201D3CB01C01A11
:1017B000524183098B4201D38B01C01A5241430924
:1017C0008B4201D34B01C01A524103098B4201D312
:1017D0000B01C01A5241C3088B4201D3CB00C01A7F
:1017E000524183088B4201D38B00C01A5241D9D297
:1017F00043088B4201D34B00C01A5241411A00D218
:1018000001465241104663465B1000D34042704788
:1018100063465B1000D3404201B50021004201D075
:10182000C9430846C046C04602BD00000000000093
:1018300000000000000000000000000000000000A8
:101840000000000000000000000000000100000097
:101850000200000003000000040000000600000079
:1018600007000000080000000900000090180008B0
:1018700000000020100000001C010008A018000853
:1018800010000020000700003C01000800000000DC
:1018900001000000040000000024F400000000002B
:04000005080000C12E
:00000001FF
